{
  "contractName": "CalHash",
  "abi": [
    {
      "constant": true,
      "inputs": [],
      "name": "getInitHash",
      "outputs": [
        {
          "internalType": "bytes32",
          "name": "",
          "type": "bytes32"
        }
      ],
      "payable": false,
      "stateMutability": "pure",
      "type": "function"
    }
  ],
  "bytecode": "0x608060405234801561001057600080fd5b50612db7806100206000396000f3fe608060405234801561001057600080fd5b506004361061002b5760003560e01c80633c9de1b814610030575b600080fd5b61003861004a565b60408051918252519081900360200190f35b600060606040518060200161005e90610106565b6020820181038252601f19601f820116604052509050806040516020018082805190602001908083835b602083106100c557805182527fffffffffffffffffffffffffffffffffffffffffffffffffffffffffffffffe09092019160209182019101610088565b6001836020036101000a0380198251168184511680821785525050505050509050019150506040516020818303038152906040528051906020012091505090565b612c6f806101148339019056fe60806040526001600c5534801561001557600080fd5b506040514690806052612c1d8239604080519182900360520182208282018252600b83526a05065706573776170204c560ac1b6020938401528151808301835260018152603160f81b908401528151808401919091527f56bea50d8de73a5680461b8aa64713e9ab0aa4e3427475a4226a4067d2be1d4f818301527fc89efdaa54c0f20c7adf612882df0950f5a951637e0307cdcb4c672f298b8bc6606082015260808101949094523060a0808601919091528151808603909101815260c09094019052825192019190912060035550600580546001600160a01b03191633179055612b17806101066000396000f3fe608060405234801561001057600080fd5b50600436106101b95760003560e01c80636a627842116100f9578063ba9a7a5611610097578063d21220a711610071578063d21220a7146105da578063d505accf146105e2578063dd62ed3e14610640578063fff6cae91461067b576101b9565b8063ba9a7a5614610597578063bc25cf771461059f578063c45a0155146105d2576101b9565b80637ecebe00116100d35780637ecebe00146104d757806389afcb441461050a57806395d89b4114610556578063a9059cbb1461055e576101b9565b80636a6278421461046957806370a082311461049c5780637464fc3d146104cf576101b9565b806323b872dd116101665780633644e515116101405780633644e51514610416578063485cc9551461041e5780635909c0d5146104595780635a3d549314610461576101b9565b806323b872dd146103ad57806330adf81f146103f0578063313ce567146103f8576101b9565b8063095ea7b311610197578063095ea7b3146103155780630dfe16811461036257806318160ddd14610393576101b9565b8063022c0d9f146101be57806306fdde03146102595780630902f1ac146102d6575b600080fd5b610257600480360360808110156101d457600080fd5b81359160208101359173ffffffffffffffffffffffffffffffffffffffff604083013516919081019060808101606082013564010000000081111561021857600080fd5b82018360208201111561022a57600080fd5b8035906020019184600183028401116401000000008311171561024c57600080fd5b509092509050610683565b005b610261610c6a565b6040805160208082528351818301528351919283929083019185019080838360005b8381101561029b578181015183820152602001610283565b50505050905090810190601f1680156102c85780820380516001836020036101000a031916815260200191505b509250505060405180910390f35b6102de610ca3565b604080516dffffffffffffffffffffffffffff948516815292909316602083015263ffffffff168183015290519081900360600190f35b61034e6004803603604081101561032b57600080fd5b5073ffffffffffffffffffffffffffffffffffffffff8135169060200135610cf8565b604080519115158252519081900360200190f35b61036a610d0f565b6040805173ffffffffffffffffffffffffffffffffffffffff9092168252519081900360200190f35b61039b610d2b565b60408051918252519081900360200190f35b61034e600480360360608110156103c357600080fd5b5073ffffffffffffffffffffffffffffffffffffffff813581169160208101359091169060400135610d31565b61039b610e10565b610400610e34565b6040805160ff9092168252519081900360200190f35b61039b610e39565b6102576004803603604081101561043457600080fd5b5073ffffffffffffffffffffffffffffffffffffffff81358116916020013516610e3f565b61039b610f18565b61039b610f1e565b61039b6004803603602081101561047f57600080fd5b503573ffffffffffffffffffffffffffffffffffffffff16610f24565b61039b600480360360208110156104b257600080fd5b503573ffffffffffffffffffffffffffffffffffffffff166112ea565b61039b6112fc565b61039b600480360360208110156104ed57600080fd5b503573ffffffffffffffffffffffffffffffffffffffff16611302565b61053d6004803603602081101561052057600080fd5b503573ffffffffffffffffffffffffffffffffffffffff16611314565b6040805192835260208301919091528051918290030190f35b6102616117b1565b61034e6004803603604081101561057457600080fd5b5073ffffffffffffffffffffffffffffffffffffffff81351690602001356117ea565b61039b6117f7565b610257600480360360208110156105b557600080fd5b503573ffffffffffffffffffffffffffffffffffffffff166117fd565b61036a6119f3565b61036a611a0f565b610257600480360360e08110156105f857600080fd5b5073ffffffffffffffffffffffffffffffffffffffff813581169160208101359091169060408101359060608101359060ff6080820135169060a08101359060c00135611a2b565b61039b6004803603604081101561065657600080fd5b5073ffffffffffffffffffffffffffffffffffffffff81358116916020013516611cf7565b610257611d14565b600c546001146106f457604080517f08c379a000000000000000000000000000000000000000000000000000000000815260206004820152601060248201527f50657065737761703a204c4f434b454400000000000000000000000000000000604482015290519081900360640190fd5b6000600c55841515806107075750600084115b61075c576040517f08c379a0000000000000000000000000000000000000000000000000000000008152600401808060200182810382526024815260200180612a4e6024913960400191505060405180910390fd5b600080610767610ca3565b5091509150816dffffffffffffffffffffffffffff168710801561079a5750806dffffffffffffffffffffffffffff1686105b61080557604080517f08c379a000000000000000000000000000000000000000000000000000000000815260206004820181905260248201527f50657065737761703a20494e53554646494349454e545f4c4951554944495459604482015290519081900360640190fd5b600654600754600091829173ffffffffffffffffffffffffffffffffffffffff91821691908116908916821480159061086a57508073ffffffffffffffffffffffffffffffffffffffff168973ffffffffffffffffffffffffffffffffffffffff1614155b6108d557604080517f08c379a000000000000000000000000000000000000000000000000000000000815260206004820152601460248201527f50657065737761703a20494e56414c49445f544f000000000000000000000000604482015290519081900360640190fd5b8a156108e6576108e6828a8d611efa565b89156108f7576108f7818a8c611efa565b86156109d9578873ffffffffffffffffffffffffffffffffffffffff16630779e507338d8d8c8c6040518663ffffffff1660e01b8152600401808673ffffffffffffffffffffffffffffffffffffffff1673ffffffffffffffffffffffffffffffffffffffff168152602001858152602001848152602001806020018281038252848482818152602001925080828437600081840152601f19601f8201169050808301925050509650505050505050600060405180830381600087803b1580156109c057600080fd5b505af11580156109d4573d6000803e3d6000fd5b505050505b604080517f70a08231000000000000000000000000000000000000000000000000000000008152306004820152905173ffffffffffffffffffffffffffffffffffffffff8416916370a08231916024808301926020929190829003018186803b158015610a4557600080fd5b505afa158015610a59573d6000803e3d6000fd5b505050506040513d6020811015610a6f57600080fd5b5051604080517f70a08231000000000000000000000000000000000000000000000000000000008152306004820152905191955073ffffffffffffffffffffffffffffffffffffffff8316916370a0823191602480820192602092909190829003018186803b158015610ae157600080fd5b505afa158015610af5573d6000803e3d6000fd5b505050506040513d6020811015610b0b57600080fd5b5051925060009150506dffffffffffffffffffffffffffff85168a90038311610b35576000610b4b565b89856dffffffffffffffffffffffffffff160383035b9050600089856dffffffffffffffffffffffffffff16038311610b6f576000610b85565b89856dffffffffffffffffffffffffffff160383035b90506000821180610b965750600081115b610beb576040517f08c379a0000000000000000000000000000000000000000000000000000000008152600401808060200182810382526023815260200180612a996023913960400191505060405180910390fd5b610bf784848888612107565b60408051838152602081018390528082018d9052606081018c9052905173ffffffffffffffffffffffffffffffffffffffff8b169133917fd78ad95fa46c994b6551d0da85fc275fe613ce37657fb8d5e3d130840159d8229181900360800190a350506001600c55505050505050505050565b6040518060400160405280600b81526020017f5065706573776170204c5000000000000000000000000000000000000000000081525081565b6008546dffffffffffffffffffffffffffff808216926e0100000000000000000000000000008304909116917c0100000000000000000000000000000000000000000000000000000000900463ffffffff1690565b6000610d053384846123c3565b5060015b92915050565b60065473ffffffffffffffffffffffffffffffffffffffff1681565b60005481565b73ffffffffffffffffffffffffffffffffffffffff831660009081526002602090815260408083203384529091528120547fffffffffffffffffffffffffffffffffffffffffffffffffffffffffffffffff14610dfb5773ffffffffffffffffffffffffffffffffffffffff84166000908152600260209081526040808320338452909152902054610dc9908363ffffffff61243216565b73ffffffffffffffffffffffffffffffffffffffff851660009081526002602090815260408083203384529091529020555b610e068484846124a4565b5060019392505050565b7f6e71edae12b1b97f4d1f60370fef10105fa2faae0126114a169c64845d6126c981565b601281565b60035481565b60055473ffffffffffffffffffffffffffffffffffffffff163314610ec557604080517f08c379a000000000000000000000000000000000000000000000000000000000815260206004820152601360248201527f50657065737761703a20464f5242494444454e00000000000000000000000000604482015290519081900360640190fd5b6006805473ffffffffffffffffffffffffffffffffffffffff9384167fffffffffffffffffffffffff00000000000000000000000000000000000000009182161790915560078054929093169116179055565b60095481565b600a5481565b6000600c54600114610f9757604080517f08c379a000000000000000000000000000000000000000000000000000000000815260206004820152601060248201527f50657065737761703a204c4f434b454400000000000000000000000000000000604482015290519081900360640190fd5b6000600c81905580610fa7610ca3565b50600654604080517f70a08231000000000000000000000000000000000000000000000000000000008152306004820152905193955091935060009273ffffffffffffffffffffffffffffffffffffffff909116916370a08231916024808301926020929190829003018186803b15801561102157600080fd5b505afa158015611035573d6000803e3d6000fd5b505050506040513d602081101561104b57600080fd5b5051600754604080517f70a08231000000000000000000000000000000000000000000000000000000008152306004820152905192935060009273ffffffffffffffffffffffffffffffffffffffff909216916370a0823191602480820192602092909190829003018186803b1580156110c457600080fd5b505afa1580156110d8573d6000803e3d6000fd5b505050506040513d60208110156110ee57600080fd5b505190506000611114836dffffffffffffffffffffffffffff871663ffffffff61243216565b90506000611138836dffffffffffffffffffffffffffff871663ffffffff61243216565b905060006111468787612585565b6000549091508061118f5761117b6103e861116f61116a878763ffffffff61271116565b612797565b9063ffffffff61243216565b985061118a60006103e86127e9565b6111ec565b6111e96dffffffffffffffffffffffffffff89166111b3868463ffffffff61271116565b816111ba57fe5b046dffffffffffffffffffffffffffff89166111dc868563ffffffff61271116565b816111e357fe5b04612899565b98505b60008911611245576040517f08c379a0000000000000000000000000000000000000000000000000000000008152600401808060200182810382526027815260200180612a726027913960400191505060405180910390fd5b61124f8a8a6127e9565b61125b86868a8a612107565b811561129d57600854611299906dffffffffffffffffffffffffffff808216916e01000000000000000000000000000090041663ffffffff61271116565b600b555b6040805185815260208101859052815133927f4c209b5fc8ad50758f13e2e1088ba56a560dff690a1c6fef26394f4c03821c4f928290030190a250506001600c5550949695505050505050565b60016020526000908152604090205481565b600b5481565b60046020526000908152604090205481565b600080600c5460011461138857604080517f08c379a000000000000000000000000000000000000000000000000000000000815260206004820152601060248201527f50657065737761703a204c4f434b454400000000000000000000000000000000604482015290519081900360640190fd5b6000600c81905580611398610ca3565b50600654600754604080517f70a08231000000000000000000000000000000000000000000000000000000008152306004820152905194965092945073ffffffffffffffffffffffffffffffffffffffff9182169391169160009184916370a08231916024808301926020929190829003018186803b15801561141a57600080fd5b505afa15801561142e573d6000803e3d6000fd5b505050506040513d602081101561144457600080fd5b5051604080517f70a08231000000000000000000000000000000000000000000000000000000008152306004820152905191925060009173ffffffffffffffffffffffffffffffffffffffff8516916370a08231916024808301926020929190829003018186803b1580156114b857600080fd5b505afa1580156114cc573d6000803e3d6000fd5b505050506040513d60208110156114e257600080fd5b5051306000908152600160205260408120549192506115018888612585565b60005490915080611518848763ffffffff61271116565b8161151f57fe5b049a5080611533848663ffffffff61271116565b8161153a57fe5b04995060008b11801561154d575060008a115b6115a2576040517f08c379a0000000000000000000000000000000000000000000000000000000008152600401808060200182810382526027815260200180612abc6027913960400191505060405180910390fd5b6115ac30846128b1565b6115b7878d8d611efa565b6115c2868d8c611efa565b604080517f70a08231000000000000000000000000000000000000000000000000000000008152306004820152905173ffffffffffffffffffffffffffffffffffffffff8916916370a08231916024808301926020929190829003018186803b15801561162e57600080fd5b505afa158015611642573d6000803e3d6000fd5b505050506040513d602081101561165857600080fd5b5051604080517f70a08231000000000000000000000000000000000000000000000000000000008152306004820152905191965073ffffffffffffffffffffffffffffffffffffffff8816916370a0823191602480820192602092909190829003018186803b1580156116ca57600080fd5b505afa1580156116de573d6000803e3d6000fd5b505050506040513d60208110156116f457600080fd5b5051935061170485858b8b612107565b811561174657600854611742906dffffffffffffffffffffffffffff808216916e01000000000000000000000000000090041663ffffffff61271116565b600b555b604080518c8152602081018c9052815173ffffffffffffffffffffffffffffffffffffffff8f169233927fdccd412f0b1252819cb1fd330b93224ca42612892bb3f4f789976e6d81936496929081900390910190a35050505050505050506001600c81905550915091565b6040518060400160405280600781526020017f504550452d4c500000000000000000000000000000000000000000000000000081525081565b6000610d053384846124a4565b6103e881565b600c5460011461186e57604080517f08c379a000000000000000000000000000000000000000000000000000000000815260206004820152601060248201527f50657065737761703a204c4f434b454400000000000000000000000000000000604482015290519081900360640190fd5b6000600c55600654600754600854604080517f70a08231000000000000000000000000000000000000000000000000000000008152306004820152905173ffffffffffffffffffffffffffffffffffffffff948516949093169261194a9285928792611945926dffffffffffffffffffffffffffff169185916370a0823191602480820192602092909190829003018186803b15801561190d57600080fd5b505afa158015611921573d6000803e3d6000fd5b505050506040513d602081101561193757600080fd5b50519063ffffffff61243216565b611efa565b600854604080517f70a0823100000000000000000000000000000000000000000000000000000000815230600482015290516119e99284928792611945926e01000000000000000000000000000090046dffffffffffffffffffffffffffff169173ffffffffffffffffffffffffffffffffffffffff8616916370a0823191602480820192602092909190829003018186803b15801561190d57600080fd5b50506001600c5550565b60055473ffffffffffffffffffffffffffffffffffffffff1681565b60075473ffffffffffffffffffffffffffffffffffffffff1681565b42841015611a9a57604080517f08c379a000000000000000000000000000000000000000000000000000000000815260206004820152601160248201527f50657065737761703a2045585049524544000000000000000000000000000000604482015290519081900360640190fd5b60035473ffffffffffffffffffffffffffffffffffffffff80891660008181526004602090815260408083208054600180820190925582517f6e71edae12b1b97f4d1f60370fef10105fa2faae0126114a169c64845d6126c98186015280840196909652958d166060860152608085018c905260a085019590955260c08085018b90528151808603909101815260e0850182528051908301207f19010000000000000000000000000000000000000000000000000000000000006101008601526101028501969096526101228085019690965280518085039096018652610142840180825286519683019690962095839052610162840180825286905260ff89166101828501526101a284018890526101c28401879052519193926101e2808201937fffffffffffffffffffffffffffffffffffffffffffffffffffffffffffffffe081019281900390910190855afa158015611bfb573d6000803e3d6000fd5b50506040517fffffffffffffffffffffffffffffffffffffffffffffffffffffffffffffffe0015191505073ffffffffffffffffffffffffffffffffffffffff811615801590611c7657508873ffffffffffffffffffffffffffffffffffffffff168173ffffffffffffffffffffffffffffffffffffffff16145b611ce157604080517f08c379a000000000000000000000000000000000000000000000000000000000815260206004820152601b60248201527f50657065737761703a20494e56414c49445f5349474e41545552450000000000604482015290519081900360640190fd5b611cec8989896123c3565b505050505050505050565b600260209081526000928352604080842090915290825290205481565b600c54600114611d8557604080517f08c379a000000000000000000000000000000000000000000000000000000000815260206004820152601060248201527f50657065737761703a204c4f434b454400000000000000000000000000000000604482015290519081900360640190fd5b6000600c55600654604080517f70a082310000000000000000000000000000000000000000000000000000000081523060048201529051611ef39273ffffffffffffffffffffffffffffffffffffffff16916370a08231916024808301926020929190829003018186803b158015611dfc57600080fd5b505afa158015611e10573d6000803e3d6000fd5b505050506040513d6020811015611e2657600080fd5b5051600754604080517f70a08231000000000000000000000000000000000000000000000000000000008152306004820152905173ffffffffffffffffffffffffffffffffffffffff909216916370a0823191602480820192602092909190829003018186803b158015611e9957600080fd5b505afa158015611ead573d6000803e3d6000fd5b505050506040513d6020811015611ec357600080fd5b50516008546dffffffffffffffffffffffffffff808216916e010000000000000000000000000000900416612107565b6001600c55565b604080518082018252601981527f7472616e7366657228616464726573732c75696e743235362900000000000000602091820152815173ffffffffffffffffffffffffffffffffffffffff85811660248301526044808301869052845180840390910181526064909201845291810180517bffffffffffffffffffffffffffffffffffffffffffffffffffffffff167fa9059cbb000000000000000000000000000000000000000000000000000000001781529251815160009460609489169392918291908083835b6020831061200057805182527fffffffffffffffffffffffffffffffffffffffffffffffffffffffffffffffe09092019160209182019101611fc3565b6001836020036101000a0380198251168184511680821785525050505050509050019150506000604051808303816000865af19150503d8060008114612062576040519150601f19603f3d011682016040523d82523d6000602084013e612067565b606091505b5091509150818015612095575080511580612095575080806020019051602081101561209257600080fd5b50515b61210057604080517f08c379a000000000000000000000000000000000000000000000000000000000815260206004820152601960248201527f50657065737761703a205452414e534645525f4641494c454400000000000000604482015290519081900360640190fd5b5050505050565b6dffffffffffffffffffffffffffff841180159061213357506dffffffffffffffffffffffffffff8311155b61219e57604080517f08c379a000000000000000000000000000000000000000000000000000000000815260206004820152601260248201527f50657065737761703a204f564552464c4f570000000000000000000000000000604482015290519081900360640190fd5b60085463ffffffff428116917c0100000000000000000000000000000000000000000000000000000000900481168203908116158015906121ee57506dffffffffffffffffffffffffffff841615155b801561220957506dffffffffffffffffffffffffffff831615155b156122b9578063ffffffff1661224c8561222286612976565b7bffffffffffffffffffffffffffffffffffffffffffffffffffffffff169063ffffffff61299a16565b600980547bffffffffffffffffffffffffffffffffffffffffffffffffffffffff929092169290920201905563ffffffff811661228c8461222287612976565b600a80547bffffffffffffffffffffffffffffffffffffffffffffffffffffffff92909216929092020190555b600880547fffffffffffffffffffffffffffffffffffff0000000000000000000000000000166dffffffffffffffffffffffffffff888116919091177fffffffff0000000000000000000000000000ffffffffffffffffffffffffffff166e0100000000000000000000000000008883168102919091177bffffffffffffffffffffffffffffffffffffffffffffffffffffffff167c010000000000000000000000000000000000000000000000000000000063ffffffff871602179283905560408051848416815291909304909116602082015281517f1c411e9a96e071241c2f21f7726b17ae89e3cab4c78be50e062b03a9fffbbad1929181900390910190a1505050505050565b73ffffffffffffffffffffffffffffffffffffffff808416600081815260026020908152604080832094871680845294825291829020859055815185815291517f8c5be1e5ebec7d5bd14f71427d1e84f3dd0314c0f7b2291e5b200ac8c7c3b9259281900390910190a3505050565b80820382811115610d0957604080517f08c379a000000000000000000000000000000000000000000000000000000000815260206004820152601560248201527f64732d6d6174682d7375622d756e646572666c6f770000000000000000000000604482015290519081900360640190fd5b73ffffffffffffffffffffffffffffffffffffffff83166000908152600160205260409020546124da908263ffffffff61243216565b73ffffffffffffffffffffffffffffffffffffffff808516600090815260016020526040808220939093559084168152205461251c908263ffffffff6129db16565b73ffffffffffffffffffffffffffffffffffffffff80841660008181526001602090815260409182902094909455805185815290519193928716927fddf252ad1be2c89b69c2b068fc378daa952ba7f163c4a11628f55a4df523b3ef92918290030190a3505050565b600080600560009054906101000a900473ffffffffffffffffffffffffffffffffffffffff1673ffffffffffffffffffffffffffffffffffffffff1663017e7e586040518163ffffffff1660e01b815260040160206040518083038186803b1580156125f057600080fd5b505afa158015612604573d6000803e3d6000fd5b505050506040513d602081101561261a57600080fd5b5051600b5473ffffffffffffffffffffffffffffffffffffffff82161580159450919250906126fd5780156126f857600061267161116a6dffffffffffffffffffffffffffff88811690881663ffffffff61271116565b9050600061267e83612797565b9050808211156126f55760006126ac61269d848463ffffffff61243216565b6000549063ffffffff61271116565b905060006126d1836126c586600563ffffffff61271116565b9063ffffffff6129db16565b905060008183816126de57fe5b04905080156126f1576126f187826127e9565b5050505b50505b612709565b8015612709576000600b555b505092915050565b600081158061272c5750508082028282828161272957fe5b04145b610d0957604080517f08c379a000000000000000000000000000000000000000000000000000000000815260206004820152601460248201527f64732d6d6174682d6d756c2d6f766572666c6f77000000000000000000000000604482015290519081900360640190fd5b600060038211156127da575080600160028204015b818110156127d4578091506002818285816127c357fe5b0401816127cc57fe5b0490506127ac565b506127e4565b81156127e4575060015b919050565b6000546127fc908263ffffffff6129db16565b600090815573ffffffffffffffffffffffffffffffffffffffff8316815260016020526040902054612834908263ffffffff6129db16565b73ffffffffffffffffffffffffffffffffffffffff831660008181526001602090815260408083209490945583518581529351929391927fddf252ad1be2c89b69c2b068fc378daa952ba7f163c4a11628f55a4df523b3ef9281900390910190a35050565b60008183106128a857816128aa565b825b9392505050565b73ffffffffffffffffffffffffffffffffffffffff82166000908152600160205260409020546128e7908263ffffffff61243216565b73ffffffffffffffffffffffffffffffffffffffff831660009081526001602052604081209190915554612921908263ffffffff61243216565b600090815560408051838152905173ffffffffffffffffffffffffffffffffffffffff8516917fddf252ad1be2c89b69c2b068fc378daa952ba7f163c4a11628f55a4df523b3ef919081900360200190a35050565b6dffffffffffffffffffffffffffff166e0100000000000000000000000000000290565b60006dffffffffffffffffffffffffffff82167bffffffffffffffffffffffffffffffffffffffffffffffffffffffff8416816129d357fe5b049392505050565b80820182811015610d0957604080517f08c379a000000000000000000000000000000000000000000000000000000000815260206004820152601460248201527f64732d6d6174682d6164642d6f766572666c6f77000000000000000000000000604482015290519081900360640190fdfe50657065737761703a20494e53554646494349454e545f4f55545055545f414d4f554e5450657065737761703a20494e53554646494349454e545f4c49515549444954595f4d494e54454450657065737761703a20494e53554646494349454e545f494e5055545f414d4f554e5450657065737761703a20494e53554646494349454e545f4c49515549444954595f4255524e4544a265627a7a723158204e20a05ed582da316b2373c9206f1c142c7b3182938de0ac13362dc8520409b964736f6c63430005100032454950373132446f6d61696e28737472696e67206e616d652c737472696e672076657273696f6e2c75696e7432353620636861696e49642c6164647265737320766572696679696e67436f6e747261637429a265627a7a72315820c95b365aa7e03a6283a3db4c7ee05b512d2431dfc0fea2970016518cbbc5e00664736f6c63430005100032",
  "source": "pragma solidity >=0.5.16;\r\nimport './PepeswapPair.sol';\r\n\r\ncontract CalHash {\r\n    function getInitHash() public pure returns(bytes32){\r\n        bytes memory bytecode = type(PepeswapPair).creationCode;\r\n        return keccak256(abi.encodePacked(bytecode));\r\n    }\r\n}",
  "sourcePath": "/mnt/e/Project/pepe-swap/pepeswap-core/contracts/CalHash.sol",
  "compiler": {
    "name": "solc",
    "version": "0.5.16+commit.9c3226ce.Emscripten.clang"
  },
  "schemaVersion": "3.4.1",
  "updatedAt": "2021-07-14T02:10:20.726Z",
  "devdoc": {
    "methods": {}
  },
  "userdoc": {
    "methods": {}
  }
}